:020000040800F2
:10000000A03D002045010008150900088D070008E3
:100010001109000845020008C5160008000000008C
:10002000000000000000000000000000610F000858
:100030009305000800000000E3010008A90B000878
:100040005F0100085F0100085F0100085F01000810
:100050005F0100085F0100085F0100085F01000800
:100060005F0100085F0100085F0100085F010008F0
:100070005F0100085F0100085103000875030008D4
:100080005F0100085F0100085F0100085F010008D0
:100090005F0100085F0100085F0100085F010008C0
:1000A0005F0100085F0100085F0100085F010008B0
:1000B0005F0100085F010008D51000085F0100081B
:1000C0005F0100085F0100085F0100085F01000890
:1000D0005F010008111400085F0100085F010008BB
:1000E0005F0100085F0100085F0100085F01000870
:1000F0005F0100085F0100085F0100085F01000860
:100100005F0100085F0100085F0100085F0100084F
:100110005F0100085F0100085F0100085F0100083F
:100120005F0100085F0100085F0100085F0100082F
:10013000DFF80CD000F032F800480047DD19000865
:10014000A03D00200648804706480047FEE7FEE73E
:10015000FEE7FEE7FEE7FEE7FEE7FEE7FEE7FEE777
:10016000751000083101000872B6704762B670471A
:10017000EFF3108072B6704780F31088704730BF7D
:10018000704720BF7047B0FA80F0704790FAA0F037
:10019000B0FA80F0704790FAA0F07047064C074D17
:1001A00006E0E06840F0010394E807009847103447
:1001B000AC42F6D3FFF7C0FFC81E0008E81E0008D7
:1001C00018484FF0FF010170002080F3098816489D
:1001D000016881F3088815484FF08051016062B6CC
:1001E000FEE772B6EFF3098028B1203880E8F00FFF
:1001F0000F490968086000B50E4880475DF804EBB8
:100200000D480E490A78027009480D490A680260D3
:10021000106890E8F00F203080F309884EF0040E4B
:1002200062B6704722ED00E00C01002004ED00E012
:1002300004010020AD0A0008920000209300002075
:100240000801002000BFFEE701460846044A126884
:10025000904203D9024A1268801A00E000207047D9
:100260002C00002070B5002500BFFFF781FF054678
:1002700000BF0648046800BF2846FFF77DFF00BFA7
:100280002046FFF7E1FF0646304670BD30000020F3
:1002900070B50025FFF7E6FF044600BFFFF768FFD3
:1002A000054600BF00200449086000BF2846FFF74C
:1002B00063FF00BF204670BD3000002010B5094824
:1002C0000088401C074908800748008818B900F0DA
:1002D00039F80649086004480088401C0249088033
:1002E00010BD00002000002022000020240000207B
:1002F00010B50F480088401E0D4908800846008848
:10030000A0B900F01FF80B490860084600680A49C8
:100310000968441A09480068A04201D207480460ED
:1003200007480068A04201D20548046010BD0000E3
:10033000220000202800002024000020300000209F
:10034000340000200148406870470000001000E0C1
:1003500010B54FF4005000F0DFF8012806D100037B
:1003600000F01AF80021024800F024F810BD000047
:100370004400024010B54FF4002000F0CDF80128F1
:1003800006D1000400F008F80021024800F012F83D
:1003900010BD00005800024000F0805111B1034927
:1003A000086001E002494860704700000404024010
:1003B0000000024021B1026842F00102026004E044
:1003C00002684FF6FE731A400260704701684FF6EC
:1003D000FE72114001600021016041608160C160D6
:1003E0004B49884208D14A490839496841F00F0110
:1003F000474A083A51608AE045491431884208D199
:1004000043490839496841F0F001414A083A5160CE
:100410007DE03F492831884208D13D490839496883
:1004200041F470613A4A083A516070E038493C3111
:10043000884208D136490839496841F47041344A44
:10044000083A516063E032495031884208D130495E
:100450000839496841F470212D4A083A516056E044
:100460002B496431884208D129490839496841F447
:100470007001274A083A516049E02549783188429D
:1004800008D123490839496841F07061204A083A87
:1004900051603CE01F49884206D1011F096841F0C4
:1004A0000F01021F116032E01A491431884208D14D
:1004B0001849091F096841F0F001164A121F11601E
:1004C00025E014492831884208D11249091F0968DA
:1004D00041F470610F4A121F116018E00D493C3160
:1004E000884208D10B49091F096841F47041094A43
:1004F000121F11600BE007495031884207D10549AE
:10050000091F096841F47021024A121F11607047E7
:10051000080002400804024001460020002201F0C9
:10052000805313B1054B1A6801E0054B1A6802EAC3
:1005300001030BB1012000E00020704700040240DD
:10054000000002401AB103680B43036002E0036835
:100550008B430360704710B50022026847F6F073C2
:100560009A430C6A8B6823430C6923434C692343E9
:100570008C692343CC6923434C6A23438C6A23430D
:100580001A430260CB6843600B6883604B68C360AA
:1005900010BD704710B504462948844208D1012196
:1005A000042000F063FC0021042000F05FFC46E022
:1005B0002448844208D10121082000F057FC002182
:1005C000082000F053FC3AE01F48844208D1012182
:1005D000102000F04BFC0021102000F047FC2EE022
:1005E0001A48844208D10121202000F03FFC00215C
:1005F000202000F03BFC22E01548844208D1012174
:10060000402000F033FC0021402000F02FFC16E0D9
:100610001048844208D10121802000F027FC0021ED
:10062000802000F023FC0AE00B48844207D101211E
:10063000801500F01BFC0021A01500F017FC10BD78
:1006400000080140000C014000100140001401406E
:1006500000180140001C0140002001402DE9F0413C
:10066000024600250026002000230024002791F8E0
:1006700003C00CF00F0591F803C00CF0100CBCF196
:10068000000F03D091F802C04CEA050591F800C0B4
:10069000BCF1000F31D0146800202BE04FF0010CAA
:1006A0000CFA00F3B1F800C00CEA03069E4220D118
:1006B00083004FF00F0C0CFA03F7BC4305FA03FC60
:1006C0004CEA040491F803C0BCF1280F06D14FF0A6
:1006D000010C0CFA00FCC2F814C00AE091F803C047
:1006E000BCF1480F05D14FF0010C0CFA00FCC2F828
:1006F00010C0401C0828D1D31460B1F800C0BCF170
:10070000FF0F34DD546800202EE000F1080C4FF09C
:10071000010808FA0CF3B1F800C00CEA03069E4287
:1007200021D183004FF00F0C0CFA03F7BC4305FAFC
:1007300003FC4CEA040491F803C0BCF1280F05D176
:1007400000F1080C08FA0CF8C2F8148091F803C004
:10075000BCF1480F07D100F1080C4FF0010808FA6E
:100760000CF8C2F81080401C0828CED35460BDE8B5
:10077000F08102460020D3680B400BB1012000E05D
:1007800000207047416170470161704700BFFEE77C
:1007900021B1028842F00102028004E002884FF693
:1007A000FE731A400280704710B504460B4884421D
:1007B00009D10121480500F039FB00214FF4001058
:1007C00000F034FB08E00121880500F02FFB002138
:1007D0004FF4800000F02AFB10BD000000540040E0
:1007E0002DE9F04385B004460D460026B1460427A6
:1007F000DFF8CC80A6884FF6C0700640684600F04F
:1008000045FBDDF808802F48B8FBF0F01FFA80F9AF
:1008100046EA0906A68020884FF6FE71084020802F
:1008200000262949286888420CD828684000B8FB6F
:10083000F0F087B2042F00DA04273E4309F10100EB
:10084000208427E0E8884BF6FF71884206D12868AB
:1008500000EB4000B8FBF0F087B209E0286800EB3D
:10086000C00101EB0010B8FBF0F087B247F48047FD
:10087000C7F30B0008B947F0010747F400400643EF
:100880004FF4967009FB00F04FF47A7190FBF1F091
:10089000401C2084A683208840F001002080268808
:1008A0004FF6F5300640A88869890843064326803C
:1008B000A88929890843208105B0BDE8F08300009C
:1008C00000127A0040420F00A08601004CF6CC4096
:1008D0000149086070470000003000404AF6AA2035
:1008E000014908607047000000300040014948603D
:1008F00070470000003000400149886070470000E8
:10090000003000400149086070470000003000409E
:1009100000BFFEE77047000070B5002100230F22E2
:10092000C47804B3154C246804F4E064C4F5E064AE
:10093000210AC1F10403CA40447804FA03F184781F
:100940001440214309010E4C0678A155047804F0A7
:100950001F050124AC4005786D11AD0005F1E025BF
:10096000C5F8004109E0047804F01F050124AC40FB
:10097000044D0678761145F8264070BD0CED00E078
:1009800000E400E080E100E002490143024A116016
:10099000704700000000FA050CED00E00848007800
:1009A000012800D0704707480078FA2800DBF9E7F3
:1009B00004480078401C0349087000BFF2E70000BB
:1009C000640000205C00002010B500242E48007850
:1009D000012800D010BD00BFFFF7CAFB044600BFCE
:1009E0002A48007828B900BF2046FFF7C5FB00BFA2
:1009F000F0E726480078401E244908700846007831
:100A0000002805DD00BF2046FFF7B6FB00BFE1E789
:100A10001F480078002805DD00BF2046FFF7ACFB2B
:100A200000BFD7E700F062F91A490870084600785D
:100A300000EB4000184951F82000184908600846AA
:100A4000006817490968884205D100BF2046FFF7B2
:100A500093FB00BFBEE711480068D0F89000401C2F
:100A60000E490968C1F890000E480068401C0D4905
:100A700008604FF080500C49086000BF2046FFF727
:100A80007BFB00BF00BFA5E7640000205C000020E6
:100A9000AC00002093000020C43500200801002095
:100AA00004010020D800002004ED00E070B52448C7
:100AB000006810B1224800688047FFF743FC0446F5
:100AC0002048006820490968884215D01D48006800
:100AD000D0F89800201A1B490968C1F894001948F9
:100AE0000068D0F89C0017490968D1F894100844B0
:100AF00014490968C1F89C0013480068C0F8984080
:100B0000FFF7C6FB05460F480068D0F8B400A842BE
:100B100003D20C480068C0F8B4500A480068D0F806
:100B2000B8000A490968884205D2084800680549A2
:100B30000968C1F8B80000200449086070BD0000D1
:100B4000500000200401002008010020A80000201F
:100B500010B586B000F01EF8FFF7F4FB044605A8B8
:100B600000210091CDE9011403900748007800EBC3
:100B70004000064A02EB800100231A46044800F0B8
:100B800033F806B010BD000092000020C4350020EC
:100B90005449434B10B50348006810B10148006840
:100BA000804710BD5400002010B5002400BF00BFD6
:100BB000FFF7DEFA044600BFFFF780FB00BF0948DD
:100BC0000078401C0749087000BFFFF791FB00BF89
:100BD0002046FFF7D1FA00BF00BFFFF7B9FFFFF7CC
:100BE000F3FE10BD5C0000202DE9F84F04460D46D1
:100BF00016461F46DDE90BABDDF82890DDF83480A2
:100C00000020009000BF00BFFFF7B2FA009000BFC5
:100C1000FFF754FB00BF2C4800882C490988884204
:100C20003EDA29480088401C274908802848008867
:100C30000988884203DA2448008825490880254825
:100C40000068046023480068856022480068C66028
:100C50002048006807821F480068C0F814901D48AB
:100C60000068A0F818A01B480068C0F81CB019481C
:100C70000068406817490860012017490881174833
:100C800008604860002000F045F81548007818B169
:100C900013480078134908700020A8F8000008E005
:100CA00011480088401C1049088044F25360A8F89D
:100CB000000000BFFFF71CFB00BF0098FFF75CFAC5
:100CC00000BF00BFBDE8F88F70000020381E00088C
:100CD0007200002068000020C4350020F03400209D
:100CE00092000020940000207400002070B50025C0
:100CF000074C03E005F12000C5B2241D2068002840
:100D0000F8D02068FFF73FFA2844C5B2284670BDE6
:100D10003800002030B5420900F01F030121C3F163
:100D20001F04A140034C54F822400C43014D45F8E8
:100D3000224030BD3800002010B5002400BFFFF76E
:100D400017FA044600BF00200D4908700D480E49EF
:100D5000086008460068D0F89000401C0968C1F897
:100D600090000A480068401C084908604FF0805015
:100D70000749086000BF2046FFF7FEF900BF10BD1D
:100D800093000020F034002008010020D80000204B
:100D900004ED00E010B504480078012803D1FFF706
:100DA000D1FA0249086010BDAC000020A00000206C
:100DB00010B50A48007880B9FFF7C4FA08490968F5
:100DC000441A08480068A04201D206480460064858
:100DD0000068A04201D20448046010BDAC000020AD
:100DE000A0000020A4000020A800002029B1064A8D
:100DF00052690243044B5A6104E0034A5269824338
:100E0000014B5A61704700000010024029B1064AA8
:100E1000D2690243044BDA6104E0034AD269824397
:100E2000014BDA61704700000010024029B1064A08
:100E300012690243044B1A6104E0034A12698243B7
:100E4000014B1A61704700000010024029B1064AA8
:100E500092690243044B9A6104E0034A9269824317
:100E6000014B9A61704700000010024029B1064A08
:100E7000D2680243044BDA6004E0034AD26882433A
:100E8000014BDA60704700000010024030B50021CD
:100E90000022002400232D4D6D6805F00C0121B1C6
:100EA000042905D0082923D105E0294D056022E059
:100EB000274D05601FE0254D6D6805F47012234D28
:100EC0006D6805F48034022505EB92421CB9214D72
:100ED000554305600BE01D4D6D6805F400351DB1EF
:100EE0001C4D5543056002E0194D5543056002E075
:100EF000174D056000BF00BF144D6D6805F0F0018F
:100F00000909154D6B5C0568DD4045600F4D6D6846
:100F100005F4E061090A104D6B5C4568DD408560B1
:100F20000A4D6D6805F46051C90A0B4D6B5C45684C
:100F3000DD40C560054D6D6805F44041890B074DE6
:100F40006B5CC568B5FBF3F5056130BD0010024070
:100F500000127A0000093D0000000020100000206F
:100F6000704710B500F002F810BD00000CB500206D
:100F7000019000903348006840F4803031490860A7
:100F800000BF3048006800F4003000900198401C19
:100F90000190009818B90198B0F5A06FF1D12948D7
:100FA000006800F4003010B10120009001E0002042
:100FB00000900098012843D12348006840F01000B9
:100FC000214908600846006820F0030008600846D0
:100FD000006840F0020008601A48406819494860FB
:100FE0000846406848600846406840F480604860B1
:100FF0000846406820F47C1048600846406840F489
:10100000E81048600846006840F08070086000BF43
:101010000C48006800F000700028F9D009484068CA
:1010200020F00300074948600846406840F002008D
:10103000486000BF0348406800F00C000828F9D160
:101040000CBD00000010024000200240042808D11E
:101050004FF0E021096941F004014FF0E0221161F5
:1010600007E04FF0E021096921F004014FF0E02290
:101070001161704710B51348006840F00100114934
:10108000086008464068104908400E494860084614
:1010900000680E4908400B4908600846006820F4C3
:1010A000802008600846406820F4FE0048604FF445
:1010B0001F008860FFF755FF4FF00060044908608B
:1010C00010BD0000001002400000FFF8FFFFF6FE18
:1010D00008ED00E010B5FFF761FC01210D4800F0BC
:1010E0002BF9A0B10C480068401C0B490860084669
:1010F0000068B0F57A7F06D10020086000F032FC6D
:1011000006A000F0E1FA0121024800F011F8FFF713
:101110005BFC10BD00080040140000200D0AD2D175
:10112000CEB9B9B7A3A1A3A1A3A10D0A00000000E5
:10113000CA430282704721B1028842F00102028054
:1011400004E002884FF6FE731A40028070470000E8
:1011500010B504466848844208D10121C014FFF745
:1011600085FE0021E014FFF781FEC4E0B4F1804F5A
:1011700008D101210846FFF759FE00210120FFF7A1
:1011800055FEB8E05D48844208D101210220FFF7F6
:101190004DFE00210220FFF749FEACE05848844292
:1011A00008D101210420FFF741FE00210420FFF7B0
:1011B0003DFEA0E05348844208D101210820FFF7FA
:1011C00035FE00210820FFF731FE94E04E488442AE
:1011D00008D101211020FFF729FE00211020FFF780
:1011E00025FE88E04948844208D101212020FFF7EC
:1011F0001DFE00212020FFF719FE7CE044488442B8
:1012000008D101214014FFF731FE00216014FFF7DF
:101210002DFE70E03F48844209D10121C804FFF748
:1012200025FE00214FF40020FFF720FE63E03A483E
:10123000844209D101210805FFF718FE00214FF46F
:101240008010FFF713FE56E03448844209D1012193
:101250004805FFF70BFE00214FF40010FFF706FED4
:1012600049E02F48844208D101214020FFF7DEFDEC
:1012700000214020FFF7DAFD3DE02A48844208D1F2
:1012800001218020FFF7D2FD00218020FFF7CEFD55
:1012900031E02548844208D101218015FFF7C6FDC1
:1012A0000021A015FFF7C2FD25E02048844209D1A6
:1012B00001210804FFF7DAFD00214FF48030FFF729
:1012C000D5FD18E01A48844209D101214804FFF7EE
:1012D000CDFD00214FF40030FFF7C8FD0BE01548AD
:1012E000844208D101218804FFF7C0FD00214FF49A
:1012F0008020FFF7BBFD10BD002C01400004004022
:1013000000080040000C00400010004000140040A5
:1013100000340140004C01400050014000540140A5
:1013200000180040001C0040002000400040014028
:10133000004401400048014030B50246002000232F
:101340000024158A05EA0103958905EA010413B111
:101350000CB1012000E0002030BD1AB183890B439D
:10136000838102E083898B43838170470022028856
:101370001D4B98420ED01D4B98420BD0B0F1804FC0
:1013800008D01B4B984205D01A4B984202D01A4BFA
:10139000984204D14FF68F731A404B881A43174B6B
:1013A000984207D0164B984204D04FF6FF431A409C
:1013B000CB881A4302808B8883850B8803850A4B70
:1013C00098420BD0094B984208D00E4B984205D05A
:1013D0000D4B984202D00D4B984201D10B7A0386F7
:1013E0000123838270470000002C0140003401403B
:1013F0000004004000080040000C004000100040C5
:1014000000140040004001400044014000480140F9
:1014100010B540F22441064800F095F830B100F0D4
:10142000D3FB40F22441024800F00DF810BD00004B
:101430000038014001F40072B2F5007F00D100BF16
:10144000CA430280704710B50022002340F66A1498
:10145000A14200D100BF0A1201249440A3B2DC4390
:10146000048010BD21B1828942F40052828104E0DF
:1014700082894DF6FF731A40828170471AB1838AC0
:101480000B43838202E0838A8B4383827047000090
:1014900010B504462048844209D101218803FFF792
:1014A000E5FC00214FF48040FFF7E0FC32E01B48F0
:1014B000844209D101214804FFF7B8FC00214FF410
:1014C0000030FFF7B3FC25E01548844209D1012123
:1014D0008804FFF7ABFC00214FF48020FFF7A6FC47
:1014E00018E01048844209D10121C804FFF79EFC8E
:1014F00000214FF40020FFF799FC0BE00A488442DA
:1015000008D101210805FFF791FC00214FF480105C
:10151000FFF78CFC10BD0000003801400044004083
:1015200000480040004C00400050004002460020AF
:10153000B1F5007F00D100BF13880B400BB1012033
:1015400000E00020704770B502460024002300250B
:10155000002040F66A16B14200D100BFC1F3421527
:1015600001F01F03012606FA03F3012D02D196892B
:10157000334006E0022D02D1168A334001E0968AFC
:1015800033400C12012606FA04F41688344013B1D5
:101590000CB1012000E0002070BDF0B5034600242E
:1015A00000260025002040F66A17B94200D100BF8E
:1015B0001846C1F3421401F01F06012707FA06F589
:1015C000012C01D10C3004E0022C01D1103000E0DC
:1015D00014301AB107682F43076002E00768AF4371
:1015E0000760F0BD2DE9F04786B005460E460024A1
:1015F000A24600BFA1460027B08900B100BF2F4618
:101600002C8A4CF6FF700440F08804432C82AC898D
:101610004EF6F3100440B0883189084371890843BD
:101620000443AC81AC8A4FF6FF400440B0890443C8
:10163000AC8201A8FFF72AFC1F48874202D1DDF8DF
:1016400010A001E0DDF80CA0A88900F4004040B132
:101650000AEBCA0000EB0A1031684900B0FBF1F850
:1016600007E00AEBCA0000EB0A1031688900B0FB02
:10167000F1F86420B8FBF0F004012009642101FBBB
:101680001089A88900F4004040B1322000EBC90065
:10169000B0FBF1F000F00700044308E0322000EB5B
:1016A00009106421B0FBF1F000F00F0004432C811D
:1016B00006B0BDE8F087000000380140C1F3080221
:1016C0008280704700BFFEE70FB4054B10B503A939
:1016D000044A029800F017F810BC5DF814FB0000F3
:1016E000E11800081001002002E008C8121F08C11C
:1016F000002AFAD170477047002001E001C1121F93
:10170000002AFBD170472DE9F84F9946924688464A
:101710000546002706E025280AD051464A4690474C
:101720006D1C7F1C28780028F5D13846BDE8F88F5D
:10173000002315F8011F18462E2915D115F8011F91
:1017400004232A290DD06FF02F022978A1F130044B
:10175000092C09D800EB800002EB400008446D1C06
:10176000F3E758F8040B6D1C2A78002ADDD0632AB1
:1017700007D0732A0FD0104651464A4690477F1C27
:101780002AE018F8042B8DF8002000218DF80110B4
:101790006E46012103E058F8046B4FF0FF315A0701
:1017A0004FF0000401D409E0641C84420BDA8C423F
:1017B000FADB325D002AF7D105E0641C8C42FCDBC9
:1017C000305D0028F9D1274404E016F8010B51469A
:1017D0004A469047641EF8D26D1CA3E770B50546D3
:1017E000002600BF00BF00BFFEF7C2FC064600BFD8
:1017F000FEF764FD00BF37480078401C354908708B
:1018000008460078012801D1FFF7C4FA00BFFEF7AF
:101810006FFD00BF3046FEF7AFFC00BF00BF00BF4A
:101820002D48008868434FF0E0214861002088611E
:101830000846006940F00100086100BF4FF0E02059
:10184000046904F0010018B104F480300028F5D0D8
:101850004FF0E020006920F001004FF0E021086126
:101860000020886100BF00BF00BFFEF781FC064674
:1018700000BFFEF723FD00BF16480078401E154943
:10188000087008460078D0B9FFF792FA134800882C
:1018900000280BDD00BFFEF72BFD00BF3046FEF732
:1018A0006BFC00BF00BFFFF747FA11E000BFFEF777
:1018B0001FFD00BF3046FEF75FFC00BF08E000BF21
:1018C000FEF716FD00BF3046FEF756FC00BF00BF16
:1018D00000BF70BDAC0000201A0000207000002086
:1018E00070B504460D46E1B20548FFF7E7FE00BFBC
:1018F00080210348FFF71AFE0028F9D0204670BD6A
:101900000038014010B50B48FEF744FE0A48FEF7C8
:1019100041FE0A48FEF73EFE01210420FFF796FA39
:1019200001210820FFF792FA01211020FFF78EFA1B
:1019300010BD000000080140000C014000100140F3
:1019400070B505460C4645F25550FEF7DBFF2846BC
:10195000FEF7CCFF2046FEF7CFFFFEF7BFFFFEF7F6
:10196000B5FF70BD10B5FEF7B9FF10BD08B510206A
:101970008DF803004002ADF8000003208DF802004E
:1019800069460348FEF76AFE00F004F808BD00004F
:101990000010014010B54FF400510248FEF7F4FE6C
:1019A00010BD00000010014010B54FF40051024876
:1019B000FEF7E8FE10BD00000010014010B54FF426
:1019C00000510548FEF7D5FE012802D1FFF7ECFFD4
:1019D00001E0FFF7DFFF10BD00100140482000F0DC
:1019E0009BF84FF4A060FEF7CFFFFFF78BFFFFF7E8
:1019F000BDFF00F077F84FF4E13000F089F947219E
:101A000040F2E73000F0A6F800F0FAF94FF4487120
:101A10000420FFF795FF29220D490E4800F068F8D1
:101A20000DA0FFF751FE0CA0FFF74EFE0AA0FFF736
:101A30004BFE09A0FFF748FE09E0FFF7BFFF04498E
:101A400009A0FFF741FE4FF47A70FFF7C7FEF4E7F5
:101A50006C17002000FC00080D0ACFB5CDB3D4CB25
:101A6000D0D00D0A000000000D0A25730D0A0000F9
:101A70001FB501214805FFF7C9F90F48FEF794FE8D
:101A80004FF48060ADF80A000001ADF80C000B487F
:101A900000904BF6FF70ADF806000020ADF8040092
:101AA0000A20ADF8080069460348FEF799FE0121B7
:101AB0000148FEF76DFE1FBD00540040801A06006D
:101AC00008B51C208DF80300C020ADF800000320ED
:101AD0008DF8020069460248FEF7C0FD08BD00000F
:101AE000000C014010B5FFF7EBFFFFF7C1FF10BD81
:101AF00030B503460C461546002207E0184600F0B4
:101B000008F824F812009B1C501C82B2AA42F5DB94
:101B100030BD01460888704710B504466FF00400D8
:101B2000FFF794FAE11704EB5171C1F3C701074ABB
:101B300011701046007800EB4001C1EBC0104FF669
:101B4000FF7101EAC0000249088010BD18000020A2
:101B50001A0000203EB505460C4601210420FFF77F
:101B600055F91048FFF7F4FA0020ADF80600ADF87B
:101B70000200ADF80450ADF8004069460948FFF78F
:101B8000F5FB012211460748FFF7E7FB0121054855
:101B9000FFF7CEFA00F008F801210248FFF7CBFA70
:101BA0003EBD00000008004008B51E208DF8000072
:101BB00001208DF8030000208DF801008DF802004F
:101BC0006846FEF7A9FE08BD10B500210848FEF7DB
:101BD000F1FB4FF48030FEF7DFFB4FF480600449E7
:101BE0005839C86501210248FEF7E4FB10BD00002A
:101BF0005800024000B58BB000211748FEF7DAFB11
:101C00001548FEF7E3FB4FF480600390002002903C
:101C10000A90124801900020079080200590002033
:101C200008900F4800900020069004904FF4405018
:101C3000099069460848FEF78EFC4FF48030FEF7A5
:101C4000ABFB012208210448FEF77CFC012102487D
:101C5000FEF7B0FB0BB000BD58000240951B002002
:101C60000438014000B58BB000211848FEF7A2FBF4
:101C70001648FEF7ABFB4FF48060039010200290F3
:101C800000200A90124801900020079080200590C3
:101C9000002008900F4800900020069004904FF418
:101CA0004050099069460948FEF755FC4FF48050B2
:101CB000FEF772FB012202210448FEF743FC0121DA
:101CC0000248FEF777FB0BB000BD00004400024065
:101CD000951700200438014008B518208DF803003E
:101CE0004FF40070ADF8000003208DF80200694643
:101CF0000648FEF7B3FC04208DF803000002ADF89F
:101D0000000069460148FEF7A9FC08BD0008014033
:101D10001FB5044601218803FFF798F81E48FFF716
:101D2000B7FBFFF7D9FF00940020ADF80C000C20A2
:101D3000ADF80A000020ADF80800ADF80600ADF8D7
:101D4000040069461448FFF74DFC00F027F84021D5
:101D50001148FFF76FFB012240F224410E48FFF7C4
:101D60001CFC012240210C48FFF788FB0122802146
:101D70000948FFF783FB01210846FFF737F8FFF713
:101D800039FF00F01CF8FFF76DFF00F029F8012182
:101D90000148FFF767FB1FBD0038014008B525204B
:101DA0008DF8000001208DF8030002208DF801005D
:101DB00000208DF802006846FEF7AEFD08BD08B5AC
:101DC0000F208DF8000001208DF8030002208DF80F
:101DD000010001208DF802006846FEF79DFD08BD58
:101DE00008B50E208DF8000001208DF803000220B8
:101DF0008DF801008DF802006846FEF78DFD08BDE4
:101E000008B528208DF803000120ADF8000003205C
:101E10008DF8020069460248FEF720FC08BD00006C
:101E200000080140981F00200C0000008000000006
:101E300000020000982100200A000000400100007C
:101E4000D82200200C0000008000000000020000EA
:101E5000D824002080000000000200006400000080
:101E600040060000D82600200B0000000A000000F9
:101E7000182D00200C00000080000000000200006F
:101E800040000000E80300000A000000182F0020B6
:101E90000C000000800000000002000011000000A3
:101EA000880000000B0000000A000000A0310020A4
:101EB0000C00000080000000000200001100000083
:101EC0008800000090140000E81E000800000020B8
:101ED00014010000E8160008FC1F0008140100208F
:101EE0008C3C0000F816000800000000010203040A
:101EF00001020304060708090204060800000000A6
:101F000000000000000000000000000000000000D1
:101F100000000000000000000000000000000000C1
:101F200000000000000000000000000000000000B1
:101F300000000000000000000000000000000000A1
:101F40000000000000000000000000000000000091
:101F50000000000000000000000000000000000081
:101F60000000000000000000000000000000000071
:101F70000000000000000000000000000000000061
:101F80000000000000000000000000000000000051
:101F90000000000000000000000000000000000041
:101FA0000000000000000000000000000000000031
:101FB0000000000000000000000000000000000021
:101FC0000000000000000000000000000000000011
:101FD0000000000000000000000000000000000001
:101FE00000000000000000000000000000000000F1
:0C1FF000000000000000000000000000E5
:0400000508000131BD
:00000001FF
