:020000040800F2
:10000000F81E0020450100085B03000853030008A8
:100010005703000845020008190800080000000006
:10002000000000000000000000000000CD060008F5
:100030005103000800000000E30100083D0500082E
:100040005F0100085F0100085F0100085F01000810
:100050005F0100085F0100085F0100085F01000800
:100060005F0100085F0100085F0100085F010008F0
:100070005F0100085F0100085F0100085F010008E0
:100080005F0100085F0100085F0100085F010008D0
:100090005F0100085F0100085F0100085F010008C0
:1000A0005F0100085F0100085F0100085F010008B0
:1000B0005F0100085F0100085F0100085F010008A0
:1000C0005F0100085F0100085F0100085F01000890
:1000D0005F0100085F0100085F0100085F01000880
:1000E0005F0100085F0100085F0100085F01000870
:1000F0005F0100085F0100085F0100085F01000860
:100100005F0100085F0100085F0100085F0100084F
:100110005F0100085F0100085F0100085F0100083F
:100120005F0100085F0100085F0100085F0100082F
:10013000DFF80CD000F032F8004800473B08000818
:10014000F81E00200648804706480047FEE7FEE705
:10015000FEE7FEE7FEE7FEE7FEE7FEE7FEE7FEE777
:10016000B90700083101000872B6704762B67047DF
:10017000EFF3108072B6704780F31088704730BF7D
:10018000704720BF7047B0FA80F0704790FAA0F037
:10019000B0FA80F0704790FAA0F07047064C074D17
:1001A00006E0E06840F0010394E807009847103447
:1001B000AC42F6D3FFF7C0FFE408000804090008CA
:1001C00018484FF0FF010170002080F3098816489D
:1001D000016881F3088815484FF08051016062B6CC
:1001E000FEE772B6EFF3098028B1203880E8F00FFF
:1001F0000F490968086000B50E4880475DF804EBB8
:100200000D480E490A78027009480D490A680260D3
:10021000106890E8F00F203080F309884EF0040E4B
:1002200062B6704722ED00E0F000002004ED00E02F
:10023000E80000204104000876000020770000203C
:10024000EC00002000BFFEE701460846044A1268A1
:10025000904203D9024A1268801A00E000207047D9
:100260001000002070B5002500BFFFF781FF054694
:1002700000BF0648046800BF2846FFF77DFF00BFA7
:100280002046FFF7E1FF0646304670BD140000200F
:1002900070B50025FFF7E6FF044600BFFFF768FFD3
:1002A000054600BF00200449086000BF2846FFF74C
:1002B00063FF00BF204670BD1400002010B5094840
:1002C0000088401C074908800748008818B900F0DA
:1002D00039F80649086004480088401C0249088033
:1002E00010BD0000040000200600002008000020CF
:1002F00010B50F480088401E0D4908800846008848
:10030000A0B900F01FF80B490860084600680A49C8
:100310000968441A09480068A04201D207480460ED
:1003200007480068A04201D20548046010BD0000E3
:10033000060000200C00002008000020140000200F
:10034000180000200148406870470000001000E0DD
:10035000704700BFFEE700BFFEE7704710B50024FE
:100360002E480078012800D010BD00BFFFF700FF25
:10037000044600BF2A48007828B900BF2046FFF78E
:10038000FBFE00BFF0E726480078401E24490870B5
:1003900008460078002805DD00BF2046FFF7ECFE88
:1003A00000BFE1E71F480078002805DD00BF2046B8
:1003B000FFF7E2FE00BFD7E700F062F91A490870C4
:1003C0000846007800EB4000184951F82000184911
:1003D00008600846006817490968884205D100BFCF
:1003E0002046FFF7C9FE00BFBEE711480068D0F8FD
:1003F0009000401C0E490968C1F890000E48006842
:10040000401C0D4908604FF080500C49086000BF47
:100410002046FFF7B1FE00BF00BFA5E7480000205F
:1004200040000020900000207700002020170020CE
:10043000EC000020E8000020BC00002004ED00E0FB
:1004400070B52448006810B1224800688047FFF763
:1004500079FF04462048006820490968884215D081
:100460001D480068D0F89800201A1B490968C1F897
:10047000940019480068D0F89C0017490968D1F821
:100480009410084414490968C1F89C001348006896
:10049000C0F89840FFF7FCFE05460F480068D0F80A
:1004A000B400A84203D20C480068C0F8B4500A480F
:1004B0000068D0F8B8000A490968884205D208489F
:1004C000006805490968C1F8B800002004490860BF
:1004D00070BD000034000020E8000020EC00002087
:1004E0008C00002010B586B000F01EF8FFF72AFF40
:1004F000044605A800210091CDE9011403900748A6
:10050000007800EB4000064A02EB800100231A4607
:10051000044800F033F806B010BD0000760000205B
:10052000201700205449434B10B50348006810B110
:1005300001480068804710BD3800002010B5002435
:1005400000BF00BFFFF714FE044600BFFFF7B6FE72
:1005500000BF09480078401C0749087000BFFFF73A
:10056000C7FE00BF2046FFF707FE00BF00BFFFF732
:10057000B9FFFFF7F3FE10BD400000202DE9F84F52
:1005800004460D4616461F46DDE90BABDDF8289004
:10059000DDF834800020009000BF00BFFFF7E8FDC9
:1005A000009000BFFFF78AFE00BF2C4800882C494E
:1005B000098888423EDA29480088401C274908807B
:1005C000284800880988884203DA24480088254999
:1005D0000880254800680460234800688560224838
:1005E0000068C6602048006807821F480068C0F89D
:1005F00014901D480068A0F818A01B480068C0F8B7
:100600001CB0194800684068174908600120174964
:100610000881174808604860002000F045F8154838
:10062000007818B113480078134908700020A8F822
:10063000000008E011480088401C1049088044F27E
:100640005360A8F8000000BFFFF752FE00BF0098FB
:10065000FFF792FD00BF00BFBDE8F88F54000020F7
:1006600054080008560000204C00002020170020ED
:100670004C16002076000020780000205800002052
:1006800070B50025074C03E005F12000C5B2241D1C
:1006900020680028F8D02068FFF775FD2844C5B20F
:1006A000284670BD1C00002030B5420900F01F0331
:1006B0000121C3F11F04A140034C54F822400C4314
:1006C000014D45F8224030BD1C000020704710B598
:1006D00000F002F810BD00000CB500200190009061
:1006E0003348006840F480303149086000BF30482A
:1006F000006800F4003000900198401C01900098C0
:1007000018B90198B0F5A06FF1D12948006800F43C
:10071000003010B10120009001E00020009000980E
:10072000012843D12348006840F0100021490860A7
:100730000846006820F0030008600846006840F0A2
:10074000020008601A484068194948600846406835
:1007500048600846406840F4806048600846406849
:1007600020F47C1048600846406840F4E810486077
:100770000846006840F08070086000BF0C480068C0
:1007800000F000700028F9D00948406820F003000C
:10079000074948600846406840F00200486000BFD2
:1007A0000348406800F00C000828F9D10CBD000097
:1007B000001002400020024010B51348006840F0CD
:1007C00001001149086008464068104908400E4978
:1007D0004860084600680E4908400B490860084612
:1007E000006820F4802008600846406820F4FE007D
:1007F00048604FF41F008860FFF769FF4FF000600A
:100800000449086010BD0000001002400000FFF81D
:10081000FFFFF6FE08ED00E000BFFEE702E008C8BB
:10082000121F08C1002AFAD170477047002001E06A
:1008300001C1121F002AFBD1704700BFFEE7000074
:10084000F40000200C000000800000000002000006
:10085000F40200200A0000004001000034040020DF
:100860000C000000800000000002000034060020A0
:10087000800000000002000064000000400600004C
:10088000340800200B0000000A000000740E002055
:100890000C0000008000000000020000400000008A
:1008A000E80300000A000000741000200C000000A3
:1008B000800000000002000011000000880000001D
:1008C0000B0000000A000000FC1200200C000000D9
:1008D00080000000000200001100000088000000FD
:1008E000901400000409000800000020F40000003B
:1008F0001C080008F8090008F4000020041E00008D
:100900002C080008000000000000000000000000AB
:1009100000000000000000000000000000000000D7
:1009200000000000000000000000000000000000C7
:1009300000000000000000000000000000000000B7
:1009400000000000000000000000000000000000A7
:100950000000000000000000000000000000000097
:100960000000000000000000000000000000000087
:100970000000000000000000000000000000000077
:100980000000000000000000000000000000000067
:100990000000000000000000000000000000000057
:1009A0000000000000000000000000000000000047
:1009B0000000000000000000000000000000000037
:1009C0000000000000000000000000000000000027
:1009D0000000000000000000000000000000000017
:1009E0000000000000000000000000000000000007
:0809F0000000000000000000FF
:0400000508000131BD
:00000001FF
